:040000004DEF00F0D0
:100008004C82FACF06F0FBCF07F0E9CF08F0EACF31
:1000180009F0E1CF0AF0E2CF0BF0D9CF0CF0DACF3C
:100028000DF0F3CF0EF0F4CF0FF0F6CF10F0F7CFBE
:1000380011F0F8CF12F0F5CF13F0F2BCA0A605D05E
:10004800A1A603D05FEC19F006D0F2BC9DA603D0A0
:100058009EB677EC10F013C0F5FF12C0F8FF11C080
:10006800F7FF10C0F6FF0FC0F4FF0EC0F3FF0DC07E
:10007800DAFF0CC0D9FF0BC0E2FF0AC0E1FF09C0DC
:10008800EAFF08C0E9FF07C0FBFF06C0FAFF4C9271
:06009800110078EF18F0E2
:1010000000010000000A00000064000000E8030086
:101010000010270000A086010040420F0080969833
:101020000000E1F50500CA9A3B00803F0020410026
:10103000C842007A44401C4650C34724744997185C
:101040004BBCBE4C6B6E4E03155079AD60F34971CD
:1010500000803FCDCC3DD7233C12833AB7D138C670
:101060002737388635C0D633CC2B32708930E7DB52
:101070002EE53C1E42A20D252E32662C20252E3256
:05108000660D0A0000EE
:10108600840E0001936F000E0001946FB8D3250EF5
:101096000001A619D8B405D00001A65157EC19F0E5
:1010A600AED3000E0001966F000E956F82C0F6FF5C
:1010B60083C0F7FF0800F5502E0AD8A434D00001EB
:1010C600968D0001824B832B000E0001A26F000E4D
:1010D600A16F1ED0A1C022F0A2C023F0000E256E83
:1010E6000A0E246EE2EC18F082C0F6FF83C0F7FF0A
:1010F6000800F5502226000E2322D00E22240001DD
:10110600A16FFF0E23200001A26F0001824B832BEB
:1011160082C0F6FF83C0F7FF0800F55019EC19F0FE
:10112600D8A00CD0D7D7000E0001A26F000EA16F79
:101136000001968903D00001968513D082C0F6FF80
:1011460083C0F7FF0001824B832B0800F5CFA6F082
:101156000001A651000AD8B41200660AD8B4EBD72B
:101166004ED3070E00019615D8B4F7D2000196A902
:1011760005D0000E0001A26F060EA16F93C0D9FF25
:1011860094C0DAFFDECFA3F0DECFA4F0DDCFA5F06A
:10119600030E00019327000E94230001A5AF11D082
:1011A600A3C014F0A4C015F0A5C016F0F5EC18F015
:1011B60014C0A3F015C0A4F016C0A5F0030E0001DC
:1011C6009513000E00019C6F000E9B6F0001A3514A
:1011D6000001A4110001A511D8B491D0820E00011E
:1011E6008A6FFF0E00018B6FA3C08CF0A4C08DF038
:1011F600A5C08EF0A6C08FF0100E06D00001D890C4
:101206008F338E338D338C33E82EF8D700018C5113
:1012160000018A2500019B6F000E00018B21000151
:101226009C6F00019B07D8A09C079BC022F09CC026
:1012360023F0000E256E030E246EE2EC18F022C099
:101246009BF023C09CF09BC01AF09CC01BF0000EC4
:101256001D6E0A0E1C6EEEEC15F01AC09BF01BC03C
:101266009CF000019CAF04D000019B07D8A09C070E
:1012760000019B51000811EC0CF066C09DF067C0A0
:101286009EF068C09FF09DC02EF09EC02FF09FC0BC
:1012960030F0A3C031F0A4C032F0A5C033F0FDECAD
:1012A60013F02EC09DF02FC09EF030C09FF09DC061
:1012B60014F09EC015F09FC016F0000E176E800E3B
:1012C600186E3F0E196EA6EC15F0D8B005D00001C9
:1012D6009B07D8A09C0713D09DC014F09EC015F0A4
:1012E6009FC016F0000E176E200E186E410E196E76
:1012F600A6EC15F0D8A003D000019B4B9C2B000157
:10130600A2BF08D00001A2511DE10D0E0001A15D92
:10131600D8B018D0A3C070F0A4C071F0A5C072F008
:101326000001A15150EC0FF066C073F067C074F075
:1013360068C075F01CEC0EF070C0A3F071C0A4F08C
:1013460072C0A5F000019CBF08D000019C512AE1A3
:101356000A0E00019B5DD8B025D00001A351000103
:10136600A4110001A511D8B45FD0A3C06DF0A4C02C
:101376006EF0A5C06FF096EC11F000016D51000102
:101386006E1100016F1100017011D8A44DD000013B
:101396009CBF4AD000019C5105E1020E00019B5DF5
:1013A600D8A042D09DC014F09EC015F09FC016F084
:1013B600700E176E890E186E400E196EA6EC15F09B
:1013C600D8B003D00001F70E02D00001F80E9B271B
:1013D600FF0E9C2300019B5111EC0CF066C09DF0A2
:1013E60067C09EF068C09FF0A3C014F0A4C015F0BB
:1013F600A5C016F09DC017F09EC018F09FC019F04A
:1014060038EC12F014C097F015C098F016C099F099
:1014160017C09AF0000E0001A36F000E0001A46F22
:10142600000E0001A56F33D0A3C06DF0A4C06EF00E
:10143600A5C06FF096EC11F06DC097F06EC098F0F5
:101446006FC099F070C09AF0A3C07CF0A4C07DF084
:10145600A5C07EF097C01CF098C01DF099C01EF084
:101466009AC01FF0DCEC16F01CC07FF01DC080F0A7
:101476001EC081F032EC17F07CC0A3F07DC0A4F052
:101486007EC0A5F0000E00019C6F000E9B6F010E42
:101496000001A66F0A0E0001A619D8B41ED00001DD
:1014A600A651040D010EF324F66E100EF420F76E0D
:1014B6000900F5500001975D0900F55000019859A3
:1014C6000900F550000199590900F55000019A5993
:1014D600D8A003D00001A62BDDD7030E0001951579
:1014E60000018A6F000E0001961500018B6F000146
:1014F6008A5100018B11D8B44AD02D0E57EC19F041
:1015060046D097C014F098C015F099C016F09AC04E
:1015160017F00001A651040D010EF324F66E100E0D
:10152600F420F76E0900F5CF18F00900F5CF19F091
:101536000900F5CF1AF00A00F5CF1BF030EC16F0D3
:1015460014C09DF015C09EF016C09FF017C0A0F005
:101556009DC014F09EC015F09FC016F0A0C017F0F5
:101566000A0E186E000E196E000E1A6E000E1B6E15
:10157600A9EC16F014C09DF015C09EF016C09FF0A1
:1015860017C0A0F000019D51300F57EC19F0000173
:10159600A6070001A629D8B408D0B3D7300E57EC59
:1015A60019F000019B07D8A09C0700019CBF07D03B
:1015B60000019C51F3E100019B05D8B0EFD7000173
:1015C600A2BF0CD00001A25105E1090E0001A15DE8
:1015D600D8A004D0080E0001A66F02D0A1C0A6F0C4
:1015E6000001A6510001A15F000E0001A6BFFF0E7B
:1015F6000001A25B0001A6510001D8B403D02E0E53
:1016060057EC19F00001A65111EC0CF066C090F0F1
:1016160067C091F068C092F0A3C031F0A4C032F068
:10162600A5C033F090C02EF091C02FF092C030F0DC
:10163600FDEC13F02EC06DF02FC06EF030C06FF0D1
:1016460096EC11F06DC097F06EC098F06FC099F0EF
:1016560070C09AF06DD097C014F098C015F099C07C
:1016660016F09AC017F00001A651040D010EF324DE
:10167600F66E100EF420F76E0900F5CF18F009008B
:10168600F5CF19F00900F5CF1AF00A00F5CF1BF0D7
:1016960030EC16F014C09DF015C09EF016C09FF0F9
:1016A60017C0A0F09DC014F09EC015F09FC016F0A4
:1016B600A0C017F00A0E186E000E196E000E1A6EF4
:1016C600000E1B6EA9EC16F014C09DF015C09EF01E
:1016D60016C09FF017C0A0F000019D51300F57ECC7
:1016E60019F097C014F098C015F099C016F09AC07A
:1016F60017F00001A651040D010EF324F66E100E2C
:10170600F420F76E0900F5CF18F00900F5CF19F0AF
:101716000900F5CF1AF00A00F5CF1BF0A9EC16F078
:1017260014C097F015C098F016C099F017C09AF03B
:101736000001A6070001A629D8B408D08CD7300E20
:1017460057EC19F00001A107D8A0A2070001A1518A
:101756000001A211D8B453D0F2D70001A151000163
:10176600A211D8A40DD000019751000198110001D3
:10177600991100019A11D8A403D00001A14BA22B04
:10178600800E0001A6BF7F0E00018A6F0001A151E5
:101796000001A65D0001A251800A00018A59D8B055
:1017A60003D0A1C0A6F018D00001A251800A000102
:1017B6008A6F0001A6510001A15D800E0001A6BF3F
:1017C6007F0E00018A59D8B007D00001A65100014A
:1017D600A16FA26BA1BFA207030E00019515000120
:1017E6008A6F000E0001961500018B6F00018A5169
:1017F60000018B11D8B403D02D0E57EC19F082C01E
:10180600F6FF83C0F7FF0001824B832B0800F5CF5C
:10181600A6F00001A651D8B4120039D400016C6FAD
:1018260000016CAF04D100016C6D00016C51800A9F
:10183600120FD8A094D0000E256E030E246E000E53
:101846001D6E0A0E1C6E000E176E640E166E0001DB
:101856006C51146E156A14BE150671EC16F014C0A0
:101866001AF015C01BF0EEEC15F0090E1A24226EC4
:10187600000E1B20236EE2EC18F0500E2224F66EAA
:10188600100E2320F76E0900F5CF31F00900F5CFD1
:1018960032F00A00F5CF33F0000E1D6E640E1C6E9A
:1018A60000016C511A6E1B6A1ABE1B06EEEC15F08F
:1018B600120E1A24226E000E1B20236E000E256EB9
:1018C600030E246EE2EC18F0500E2224F66E100E73
:1018D6002320F76E0900F5CF2EF00900F5CF2FF083
:1018E6000A00F5CF30F0FDEC13F02EC069F02FC0E2
:1018F6006AF030C06BF069C02EF06AC02FF06BC082
:1019060030F0000E256E030E246E000E176E0A0EC2
:10191600166E00016C51146E156A14BE150671EC34
:1019260016F014C022F015C023F0E2EC18F0500EA9
:101936002224F66E100E2320F76E0900F5CF31F043
:101946000900F5CF32F00A00F5CF33F0FDEC13F0C5
:101956002EC066F02FC067F030C068F0120000019C
:101966006C51800A750FD8A04FD0000E1D6E0A0E5E
:101976001C6E00016C511A6E1B6A1ABE1B06EEEC39
:1019860015F0090E1A24226E000E1B20236E000E7F
:10199600256E030E246EE2EC18F0500E2224F66E2D
:1019A600100E2320F76E0900F5CF2EF00900F5CFB3
:1019B6002FF00A00F5CF30F0000E256E030E246ED0
:1019C600000E176E0A0E166E00016C51146E156A23
:1019D60014BE150671EC16F014C022F015C023F0E3
:1019E600E2EC18F0500E2224F66E100E2320F76E4D
:1019F6000900F5CF31F00900F5CF32F00A00F5CF36
:101A060033F0FDEC13F0A4D700016C51030D500E1A
:101A1600F324F66E100EF420F76E0900F5CF66F08B
:101A26000900F5CF67F00A00F5CF68F01200000153
:101A36006C51800A120FD8A094D0000E256E030EAA
:101A4600246E000E1D6E0A0E1C6E000E176E640EBE
:101A5600166E00016C51146E156A14BE150671ECF3
:101A660016F014C01AF015C01BF0EEEC15F0090EB6
:101A76001A24226E000E1B20236EE2EC18F0290EAB
:101A86002224F66E100E2320F76E0900F5CF31F0F2
:101A96000900F5CF32F00A00F5CF33F0000E1D6EC7
:101AA600640E1C6E00016C511A6E1B6A1ABE1B0670
:101AB600EEEC15F0120E1A24226E000E1B20236E79
:101AC600000E256E030E246EE2EC18F0290E222479
:101AD600F66E100E2320F76E0900F5CF2EF00900E2
:101AE600F5CF2FF00A00F5CF30F0FDEC13F02EC045
:101AF60069F02FC06AF030C06BF069C02EF06AC082
:101B06002FF06BC030F0000E256E030E246E000E13
:101B1600176E0A0E166E00016C51146E156A14BE0D
:101B2600150671EC16F014C022F015C023F0E2EC95
:101B360018F0290E2224F66E100E2320F76E0900E7
:101B4600F5CF31F00900F5CF32F00A00F5CF33F0CA
:101B5600FDEC13F02EC066F02FC067F030C068F0C1
:101B6600120000016C51800A750FD8A04FD0000EEC
:101B76001D6E0A0E1C6E00016C511A6E1B6A1ABE8F
:101B86001B06EEEC15F0090E1A24226E000E1B2021
:101B9600236E000E256E030E246EE2EC18F0290E5D
:101BA6002224F66E100E2320F76E0900F5CF2EF0D4
:101BB6000900F5CF2FF00A00F5CF30F0000E256EA4
:101BC600030E246E000E176E0A0E166E00016C517F
:101BD600146E156A14BE150671EC16F014C022F0C8
:101BE60015C023F0E2EC18F0290E2224F66E100E32
:101BF6002320F76E0900F5CF31F00900F5CF32F05A
:101C06000A00F5CF33F0FDEC13F0A4D700016C51B8
:101C1600030D290EF324F66E100EF420F76E09005C
:101C2600F5CF66F00900F5CF67F00A00F5CF68F04A
:101C3600120072C076F00001776B786B0001713587
:101C46000001763701E377810001765100017B6F51
:101C560075C076F00001776B786B00017435000172
:101C6600763701E377810001765100017A6F000132
:101C76007B510001D8B411D000017A5100017B5D7F
:101C8600D8B012D000017B51000800017A2500016E
:101C9600766F180E0001766507D073C070F074C0B9
:101CA60071F075C072F0120000017A510001D8B4CB
:101CB60011D000017B5100017A5DD8B012D000012D
:101CC6007A51000800017B250001766F180E00018D
:101CD600766507D070C070F071C071F072C072F096
:101CE6001200060E0001796F000172AF02D00001EA
:101CF600798F000175AF02D00001798D0001718FD7
:101D0600FF0E00017017FF0E00017117000E000193
:101D160072170001748FFF0E00017317FF0E00018A
:101D26007417000E0001751700017A5100017B5DE2
:101D3600D8B025D00001D8907337743775370001B5
:101D46007A0700017B5100017A19D8B411D000013D
:101D5600790779C076F0070E00017617D8B408D057
:101D6600E9D70001D89072337133703300017B2BB1
:101D760000017A5100017B19D8B42BD0F2D70001AB
:101D86007B5100017A5DD8B024D00001D89070371D
:101D96007137723700017B0700017B5100017A1908
:101DA600D8B411D00001790779C076F0070E00018A
:101DB6007617D8B408D0E9D70001D89075337433B4
:101DC600733300017A2B00017A5100017B19D8A4E4
:101DD600F3D7000179AF12D0FF0E0001701BFF0E82
:101DE6000001711BFF0E0001721B010E000170271E
:101DF600000E00017123000E00017223000179AD6F
:101E060012D0FF0E0001731BFF0E0001741BFF0EA4
:101E16000001751B010E00017327000E00017423DB
:101E2600000E00017523000E0001796F000170514C
:101E360000017327000171510001742300017251E2
:101E460000017523000175AF15D0FF0E0001731B4D
:101E5600FF0E0001741BFF0E0001751B010E000131
:101E66007327000E00017423000E00017523010E76
:101E76000001796F73C014F074C015F075C016F0C8
:101E86007BC017F079C018F000EC15F014C070F0A4
:101E960015C071F016C072F0120000016F6F6D0E62
:101EA60000016F659FD0000E256E030E246E000E96
:101EB6001D6E0A0E1C6E000E176E640E166E6FC037
:101EC60014F0156A71EC16F014C01AF015C01BF068
:101ED600EEEC15F0090E1A24226E000E1B20236E5E
:101EE600E2EC18F0500E2224F66E100E2320F76E48
:101EF6000900F5CF31F00900F5CF32F00A00F5CF31
:101F060033F0000E1D6E640E1C6E6FC01AF01B6A55
:101F1600EEEC15F0120E1A24226E000E1B20236E14
:101F2600000E256E030E246EE2EC18F0500E2224ED
:101F3600F66E100E2320F76E0900F5CF2EF009007D
:101F4600F5CF2FF00A00F5CF30F0FDEC13F02EC0E0
:101F56006CF02FC06DF030C06EF0000E256E030ED3
:101F6600246E000E176E0A0E166E6FC014F0156AF8
:101F760071EC16F014C022F015C023F0E2EC18F054
:101F8600500E2224F66E100E2320F76E0900F5CFB0
:101F960031F00900F5CF32F00A00F5CF33F06CC00E
:101FA6002EF06DC02FF06EC030F0FDEC13F02EC099
:101FB60069F02FC06AF030C06BF069C02EF06AC0BD
:101FC6002FF06BC030F0000E316E000E326E3F0EF9
:101FD600336EFDEC13F02EC066F02FC067F030C0F4
:101FE60068F012000A0E00016F655DD0000E256EC6
:101FF600030E246E000E176E0A0E166E6FC014F0D6
:10200600156A71EC16F014C022F015C023F0E2EC4C
:1020160018F0500E2224F66E100E2320F76E0900DB
:10202600F5CF31F00900F5CF32F00A00F5CF33F0E5
:10203600000E1D6E0A0E1C6E6FC01AF01B6AEEECC7
:1020460015F0090E1A24226E000E1B20236E000EB8
:10205600256E030E246EE2EC18F0500E2224F66E66
:10206600100E2320F76E0900F5CF2EF00900F5CFEC
:102076002FF00A00F5CF30F0FDEC13F02EC06CF017
:102086002FC06DF030C06EF06CC02EF06DC02FF01A
:102096006EC030F0000E316E000E326E3F0E336EA3
:1020A600FDEC13F098D700016F51030D500EF32489
:1020B600F66E100EF420F76E0900F5CF2EF009002B
:1020C600F5CF2FF00A00F5CF30F0000E316E000E7E
:1020D600326E3F0E336EFDEC13F02EC066F02FC04D
:1020E60067F030C068F012009E96C6AEF9D0C69E64
:1020F600000E496E20EE03F04250D9264350DA22F4
:10210600DECF04F0DDCF05F004C0D9FF05C0DAFF4D
:10211600010EDF6E000E426E000E436E12003DB2DF
:1021260012003BC042F03CC043F03BC0D9FF3CC06C
:10213600DAFFDF50486E20EE01F03B50D9263C50C6
:10214600DA22DECF44F0DDCF45F0050E3B26000E49
:102156003C22CF0E3B1808E1000E3C18D8A404D050
:10216600CA0E3B6E000E3C6E3D9039503B1804E1A2
:102176003A503C18D8B43D82C580020E496E120012
:10218600C582020E496E1200C5AC05D03F2A040E68
:1021960097EC18F01200D8904B30056E4A30046E5A
:1021A6000450C96E4AA003D00B0E496E1200030EEE
:1021B600496E1200C5AC05D03F2A040E97EC18F004
:1021C6001200C5824AC004F04BC005F005C004F0F9
:1021D600056A060E0416000E0516F00E04104A6E69
:1021E60005504B6E4A80010E466E020E496E120075
:1021F6004604D8B41AD044C0D9FF45C0DAFFDECFB2
:102206004AF0DDCF4BF020EE03F04450D92645507E
:10221600DA22DECF40F0DDCF41F020EE02F044506E
:10222600D9264550DA22DF50476E4AC0C9FF4AA078
:1022360003D0050E496E1200030E496E1200C5AC9E
:1022460006D03F2AC59C050E97EC18F012004706EB
:102256004728D8A40ED0050E4426000E4522482E47
:1022660004D0000E97EC18F01200C582020E496EDB
:10227600120040C0D9FF41C0DAFFDF50C96E404AA4
:10228600412A1200C5AC06D03F2A040E97EC18F07E
:10229600C59C1200C586080E496E1200080E496ECE
:1022A600C586120040C0D9FF41C0DAFFC9CFDFFFA3
:1022B600404A412A010E475ED8B404D0C59A060E9C
:1022C600496E03D0C58A28EC19F0C5881200000EA5
:1022D60097EC18F012003F2A060E97EC18F0120041
:1022E6004950000AD8B41BD7010AD8B449D7030A03
:1022F600D8B47ED7010AD8B4A2D7070AD8B4E7D78C
:10230600010AD8B4BFD7030AD8B4C8D7010AD8B4CB
:10231600DED70F0AD8B4C6D7020AD8B435D7010A11
:10232600D8B448D7D8D76FC071F00001726B736B01
:1023360000016E350001713701E3728100017151B0
:1023460000017B6F00017B51D8A40AD0000E00016A
:102356006D6F000E6E6F000E6F6F000E706F1200C5
:10236600170E0001716F6DC072F06EC073F06FC012
:1023760074F0000171290001756F05D00001D89035
:102386007433733372330001752FF8D7000172511D
:102396000001766F00016E8FFF0E00016D17FF0EB4
:1023A60000016E17000E00016F1700016D5100014C
:1023B600776F00016E510001786F00016F510001C7
:1023C600796F00017A6B8E0E00017B5F00017BAF97
:1023D6001AD000017B51800A8F0FD8B00AD0000EA8
:1023E60000016D6F000E6E6F000E6F6F000E706F46
:1023F60012000001D8907A337933783377330001AD
:102406007B3FF7D71BD0170E00017B6512D0000E5D
:1024160000016D6F000E6E6F000E6F6F000E706F15
:1024260012000001D8907737783779377A3700016C
:102436007B0700017B510001D8A4F3D70001765138
:102446000001D8B409D000017A1F791F781F776D73
:10245600000E782379237A2377C06DF078C06EF06A
:1024660079C06FF07AC070F0120016C01AF01B6ABD
:102476001C6A15341A3601E31B801A50226E22504C
:10248600D8A409D0000E146E000E156E000E166E3E
:10249600000E176E120019C01AF01B6A1C6A183457
:1024A6001A3601E31B801A50216E2150D8A409D098
:1024B600000E146E000E156E000E166E000E176ED0
:1024C6001200158EFF0E1416FF0E1516000E1616A8
:1024D600188EFF0E1716FF0E1816000E1916000E90
:1024E6001D6E000E1E6E000E1F6E000E206E7F0EFD
:1024F600225E2150980F225E180E216ED8901D364E
:102506001E361F3620361750145C185015581950B1
:102516001658D8A007D01750145E1850155A1950DF
:10252600165A1D80D890143615361636212EE6D743
:1025360022AE16D02250800A970FD8B009D0000ECE
:10254600146E000E156E000E166E000E176E12003B
:10255600D89020321F321E321D32223EF9D715D0B6
:10256600170E22640FD0000E146E000E156E000EAC
:10257600166E000E176E1200D8901D361E361F36C8
:10258600203622062250D8A4F7D71DC014F01EC04C
:1025960015F01FC016F020C017F0120034EC19F029
:1025A600F28EF28C000E2A6E000E296E020ECDEC13
:1025B60018F0ECEC17F029C0ADF02AC0AEF010EC24
:1025C60018F029C0AFF02AC0B0F0000E316E250E0B
:1025D600326E430E336E000E226E800E236E470E51
:1025E600246EADC01CF0AEC01DF007EC19F01CC087
:1025F6001FF01DC020F01EC021F08DEC14F01FC08E
:102606002EF020C02FF021C030F0FDEC13F02EC0CC
:1026160070F02FC071F030C072F0000E0001736FC1
:10262600200E0001746FC20E0001756F1CEC0EF0D7
:1026360070C0A7F071C0A8F072C0A9F0000E226E9B
:10264600800E236E470E246EAFC01CF0B0C01DF086
:1026560007EC19F01CC01FF01DC020F01EC021F0B1
:102666008DEC14F01FC02EF020C02FF021C030F0EA
:10267600000E316EC80E326E420E336EFDEC13F054
:102686002EC0AAF02FC0ABF030C0ACF0770E000120
:10269600826F100E0001836FA7C084F0A8C085F07A
:1026A600A9C086F0AAC087F0ABC088F0ACC089F09C
:1026B60043EC08F0030E386E8A0E376E560EE82E7F
:1026C600FED7372EFCD7382EFAD773D716341734E1
:1026D6001F6E1F50D8A409D0000E146E000E156E82
:1026E600000E166E000E176E120019341A341E6E86
:1026F6001E50D8A409D0000E146E000E156E000EE2
:10270600166E000E176E1200168EFF0E1416FF0EB2
:102716001516FF0E1616000E1716198EFF0E171633
:10272600FF0E1816FF0E1916000E1A16000E1A6E58
:10273600000E1B6E000E1C6E000E1D6E7F0E1F5EC1
:102746001E50A00F1F5E200E1E6ED8901A361B3626
:102756001C361D361750145C18501558195016584B
:102766001A501758D8A009D01750145E1850155A89
:102776001950165A1A50175A1A80D8901436153608
:10278600163617361E2EE1D71FAE16D01F50800AFA
:102796009F0FD8B009D0000E146E000E156E000EF5
:1027A600166E000E176E1200D8901D321C321B32A8
:1027B6001A321F3EF9D715D01F0E1F640FD0000E18
:1027C600146E000E156E000E166E000E176E1200B9
:1027D600D8901A361B361C361D361F061F50D8A435
:1027E600F7D71AC014F01BC015F01CC016F01DC098
:1027F60017F0120030C034F0356A366A2F3434369A
:1028060001E3358034500001606F00016051D8A4A7
:1028160007D0000E2E6E000E2F6E000E306E1200C8
:1028260033C034F0356A366A3234343601E33580E3
:1028360034500001656F00016551D8A407D0000E21
:102846002E6E000E2F6E000E306E120000016551C6
:102856007B0F0001602730C065F033500001651B17
:10286600800E000165172F8E328EFF0E3116FF0E79
:102876003216000E3316000E0001616F000E0001C5
:10288600626F000E0001636F070E0001646F2EA0D9
:1028960009D03150000161273250000162233350C4
:1028A60000016323D89030322F322E32D890313641
:1028B600323633360001642FEAD7090E0001646F01
:1028C6002EA009D031500001612732500001622349
:1028D600335000016323D89030322F322E3200015C
:1028E600D8906333623361330001642FE9D761C046
:1028F60014F062C015F063C016F060C017F065C032
:1029060018F000EC15F014C02EF015C02FF016C00C
:1029160030F0120021C025F0266A276A20342536B9
:1029260001E3268025502C6E2C50D8A407D0000E2B
:102936001F6E000E206E000E216E120024C025F0C0
:10294600266A276A2334253601E3268025502D6E14
:102956002D50D8A407D0000E1F6E000E206E000E5C
:10296600216E1200000E296E000E2A6E000E2B6ECE
:102976002D50890F2C5E21C02DF024502D1A800E6B
:102986002D16208EFF0E1F16FF0E2016000E211686
:10299600238EFF0E2216FF0E2316000E2416180E87
:1029A600286ED89029362A362B3622501F5C2350A3
:1029B600205824502158D8A007D022501F5E2350FB
:1029C600205A2450215A2980D8901F362036213685
:1029D600282EE7D729C014F02AC015F02BC016F010
:1029E6002CC017F02DC018F000EC15F014C01FF025
:1029F60015C020F016C021F012001750D8B405D02B
:102A0600145015101610D8A40CD0000E146E000E1B
:102A1600156E000E166E1200172AD8901632153251
:102A26001432000E1414196E000E15141A6EFE0ED2
:102A360016141B6E19501A101B10D8B40CD0ECD7F4
:102A4600172A010E1426000E1522000E1622D89003
:102A5600163215321432000E1414196E000E1514A7
:102A66001A6EFF0E16141B6E19501A101B10D8B4CE
:102A760006D0E6D71706D89014361536163615BE84
:102A860003D0020E1760F6D717A0159ED8901732FE
:102A9600175016121850D8A4168E14C014F015C06C
:102AA60015F016C016F01200196E3DB039D016C0DA
:102AB600D9FF17C0DAFF020EDF6E20EE01F03950A3
:102AC600D9263A50DA2214C0DEFF15C0DDFF39C020
:102AD600D9FF3AC0DAFF19C0DFFF20EE03F0395004
:102AE600D9263A50DA2216C0DEFF17C0DDFF050EE2
:102AF6003926000E3A22CF0E391808E1000E3A1890
:102B0600D8A404D0CA0E396E000E3A6E3D923950E2
:102B16003B180CE13A503C18D8A408D03D8006D0AA
:102B260016C0D9FF17C0DAFF010EDF6E16C0D9FF37
:102B360017C0DAFF020EDE18D8A412004950D8A436
:102B4600FDD79E86120016AE16D014C01AF015C018
:102B56001BF016C01CF01A1E1B1E1C1E1A2A000E85
:102B66001B221C22000E1A24146E000E1B20156E4A
:102B7600800E1C20166E19AE16D017C01AF018C09B
:102B86001BF019C01CF01A1E1B1E1C1E1A2A000E52
:102B96001B221C22000E1A24176E000E1B20186E14
:102BA600800E1C20196E000E141A000E151A800EC7
:102BB600161A000E171A000E181A800E191A175038
:102BC600145C1850155819501658D8B002D0D89021
:102BD6001200D8801200000E1F6E1DAE06D01C6CAF
:102BE6001D1ED8B01D2A010E1F6E1BAE06D01A6C14
:102BF6001B1ED8B01B2A010E1F1A000E216E000ED6
:102C0600206E1C501D10D8B41CD0010E1E6E04D0B0
:102C1600D8901C361D361E2A1DAEFAD7D8902036FF
:102C260021361C501A5C1D501B58D8A005D01C50CC
:102C36001A5E1D501B5A2080D8901D321C321E2E43
:102C4600EDD71F50D8B404D0206C211ED8B0212A4D
:102C560020C01AF021C01BF01200000E1C6E000EE0
:102C66001D6E000E1E6E000E1F6E185019101A10E3
:102C76001B10D8B42AD0010E206E06D0D890183674
:102C860019361A361B36202A1BAEF8D7D8901C36B2
:102C96001D361E361F361850145C195015581A501A
:102CA60016581B501758D8A009D01850145E195042
:102CB600155A1A50165A1B50175A1C80D8901B3298
:102CC6001A3219321832202EE1D71CC014F01DC05A
:102CD60015F01EC016F01FC017F01200000E196E78
:102CE60015AE06D0146C151ED8B0152A010E196E35
:102CF60017AE04D0166C171ED8B0172A1650171028
:102D0600D8B418D0010E186E04D0D89016361736DF
:102D1600182A17AEFAD71650145C17501558D8A0B3
:102D260004D01650145E1750155AD8901732163222
:102D3600182EF1D71950D8B404D0146C151ED8B07B
:102D4600152A14C014F015C015F0120018501910E9
:102D56001A101B10D8B424D0010E1C6E06D0D890C1
:102D6600183619361A361B361C2A1BAEF8D71850D9
:102D7600145C195015581A5016581B501758D8A0DD
:102D860008D01850145E1950155A1A50165A1B506E
:102D9600175AD8901B321A32193218321C2EE7D71E
:102DA60014C014F015C015F016C016F017C017F0B1
:102DB60012008E0E246E06D0D8901F321E321D329F
:102DC6001C32242A000E1C14206E000E1D14216EC7
:102DD600000E1E14226EFF0E1F14236E20502110AB
:102DE60022102310D8A4E8D71CC014F01DC015F07B
:102DF6001EC016F024C017F0000E186E00EC15F079
:102E060014C01CF015C01DF016C01EF0120019C02B
:102E16001BF01AC01CF0D8901B361C3614C0D9FF04
:102E260015C0DAFF1BC0DEFF1CC0DDFF14C0D9FFD2
:102E360015C0DAFF000EDB8020EE02F01450D92612
:102E46001550DA2218C0DFFF20EE03F01450D92601
:102E56001550DA2216C0DEFF17C0DDFF1200000192
:102E66007F510001801100018111D8B409D0000EF4
:102E760000017F1B000E0001801B800E0001811BDC
:102E86007CC070F07DC071F07EC072F07FC073F0C0
:102E960080C074F081C075F01CEC0EF070C07CF040
:102EA60071C07DF072C07EF01200266E2868000E9A
:102EB600276E15D024C01DF025C01EF026C01FF0B9
:102EC600000E216E400E206E280E226E000E236E1E
:102ED6007DEC17F0020E2818D8B4FCD7272A280450
:102EE600D8B412002850D8B41200050E2718D8B44A
:102EF6001200E0D73DB01CD0C50E146E000E156E44
:102F06001DC016F01EC017F01FC018F020C019F023
:102F160021C01AF034EC18F0C50E146E000E156EB2
:102F260022C016F023C017F0010E57EC15F0120060
:102F360022C0D9FF23C0DAFF010EDF6E1200266E13
:102F46002868000E276E15D024C01DF025C01EF07F
:102F560026C01FF0000E216E400E206E280E226E37
:102F6600000E236EC7EC17F0020E2818D8B4FCD753
:102F7600272A2804D8B412002850D8B41200050E07
:102F86002718D8B41200E0D73DB01CD0C00E146E7E
:102F9600000E156E1DC016F01EC017F01FC018F0EB
:102FA60020C019F021C01AF00AEC17F0C00E146EFA
:102FB600000E156E22C016F023C017F0010E57EC56
:102FC60015F0120022C0D9FF23C0DAFF010EDF6E12
:102FD6001200BCC02DF0BDC02EF02D0E246E000ECA
:102FE600256E010E58EC17F0060E2B6E300EE82EED
:102FF600FED72B2EFCD700D02D0E246E000E256E8C
:10300600020EA2EC17F02D502C6E2B6A2E502B249C
:10301600296E000E2C202A6E1200CFC02DF0D0C0D3
:103026002EF02D0E246E000E256E010E58EC17F0B4
:10303600060E2B6E300EE82EFED72B2EFCD700D0B8
:103046002D0E246E000E256E020EA2EC17F02D50EA
:103056002C6E2B6A2E502B24296E000E2C202A6EE5
:10306600120019C01BF01AC01CF0D8901B361C3673
:1030760014C0D9FF15C0DAFF1BC0DEFF1CC0DDFF80
:1030860020EE02F01450D9261550DA2218C0DFFFC0
:1030960020EE03F01450D9261550DA2216C0DEFFB2
:1030A60017C0DDFF1200000E8D6E000E8C6E000E36
:1030B600896E000E8A6E000E8B6E070E966E9268F3
:1030C6009368BF0E946E9568A40E0F013A6F3F0E7B
:1030D6000F01396F0F013B69070E0F013C6F2F0E71
:1030E6000F01386F6168F19E1200BC0EF66E320E4B
:1030F600F76E000EF86E0900F5CFCFF00900F5CF98
:10310600D0F000EEB1F01E0EEE6AE806FDE100EE2C
:1031160039F0130EEE6AE806FDE14C904C92000E73
:10312600F86E0001D1EF12F0036EC58420EE03F0B5
:103136004250D9264350DA22DE50DE10D8B410D0E1
:1031460020EE03F04250D9264350DA22DECF01F0BA
:10315600DDCF02F001C0D9FF02C0DAFF03C0DFFFF6
:10316600000E496E1200CA0E3B6E000E3C6ECA0E71
:10317600396E000E3A6E3D823D90000E3F6E000E97
:10318600C76E280EC66E000ECB6E040EC86E9E96D7
:103196009D8612002B6EB9C02CF0BAC02DF0BBC0B4
:1031A6002EF02BC02CF02A502D6E29C02EF02C0E9E
:1031B600246E000E256E030E58EC17F012002250F6
:1031C6002402F3CF26F0F4CF27F022502502F35045
:1031D600272623502402F350272626C022F027C094
:1031E60023F01200145015101610D8B406D0000E95
:1031F600141A000E151A800E161A14C014F015C0F3
:1032060015F016C016F012001CC014F01DC015F003
:10321600166A8E0E176E000E186E00EC15F014C0AE
:103226001CF015C01DF016C01EF01200166E000E22
:10323600156E3A0E166005D02F0E166402D0010EDA
:10324600156E15C014F014301200050E4426000E3B
:103256004522482E03D0040E496E1200010E496E17
:1032660012005CEC19F056EC18F04AEC19F0B6ECCA
:1032760018F03FEC19F01200080EB86E800EAB6E17
:10328600240EAC6E330EAF6E000EB06E1200420E00
:10329600D36E040ED26E000E9B6E1200146E9EA8A4
:1032A600FED714C0ADFF1200156E155051EC19F083
:0A32B6001200D09E12000100120069
:020000040020DA
:08000000FFFFFFFFFFFFFFFF00
:020000040030CA
:0E000000FF281F3CFFBF85FF0FC00FE00F4021
:00000001FF
